:100B880048656C6C6F20776F726C642E0D0A0000DC
:100B980003050911FF118905C300E000F000F80002
:100BA8000000000000004428FF11AA4400000000D3
:100BB800000000000000000000000000000000002D
:100BC800000000000000000000000000000000001D
:100BD800000000000000000000000000000000000D
:100BE8000000000000000000008301384482929257
:100BF800740183000000000000007C44FF017D7D3B
:100C08007D017D7D7D7D017D7D7D7D7D01FF0000F8
:100C180000000000010001000100010001000100C6
:100C280000000000000000000101000000000000BA
:100C380000000000000000000000000000000000AC
:100C4800000000000000000000000000000000009C
:100C5800000000000000000000000000000000008C
:100C6800000000000000000000010100000000007A
:100C78000001010000000000000000000101010166
:100C8800010101010101010101010101010100004E
:100C9800000000000000000000000000000000004C
:100CA80000000000000000000000003F3F0303F3C5
:100CB8001311111111111101F1116181010101814A
:100CC8006111F1010101014141F10101010101C17C
:100CD800211111111121C1010101014141F101014C
:100CE80001010101010101011111111111D3330396
:100CF800033F3F000000000000000000000000006B
:100D080000000000000000000000000000000000DB
:100D180000000000000000000000000000000000CB
:100D28000000000000000000000000E0E000007F7C
:100D380001010101010100007F0000010618060100
:100D480000007F0000000040407F40400000001F7E
:100D58002040404040201F0000000040407F4040AD
:100D680000000000600000000040300C030000009C
:100D780000E0E000000000000000000000000000AB
:100D8800000000000000000000000000000000005B
:100D9800000000000000000000000000000000004B
:100DA800000000000000000000000007070606061B
:100DB8000604040484444444840404844444448469
:100DC80004040484C40404040484444444840404DB
:100DD800040404844444448404040404048444440B
:100DE8004484040484444444840404040406060635
:100DF80006070700000000000000000000000000D7
:100E080000000000000000000000000000000000DA
:100E180000000000000000000000000000000000CA
:100E280000000000000000000000000000000000BA
:100E380000000000101814121100000F1010100FFD
:100E4800000000101F10000000081012120D000012
:100E58001800000D1212120D0000180000101814CE
:100E680012110000101814121100000000000000F8
:100E7800000000000000000000000000000000006A
:100E8800000000000000000000000000000000005A
:100E9800000000000000000000000000000000004A
:100EA800000000000000000000000000000000003A
:100EB800000000000000000000000000000000002A
:100EC800000000000000000000000080808080809A
:100ED800808080000000000000000000000000008A
:100EE80000000000000000000000000000000000FA
:100EF80000000000000000000000000000000000EA
:100F080000000000000000000000000000000000D9
:100F18007F030C300C037F00003854545800007CC9
:100F280004047800003C40407C0000000000000001
:100F380000000000000000000000000000000000A9
:100F48000000000000000000000000FFAAAAAA2874
:100F58000800FF0000000000000000000000000082
:100F68000000000000000000000000000000000079
:100F780000000000000000007F030C300C037F001D
:100F880000264949493200007F020408107F00000A
:100F980003050911FF118905C300E000F000F800FE
:100FA8000000000000004428FF11AA4400000000CF
:100FB8000000000000000000000000000000000029
:100FC8000000000000000000000000000000000019
:100FD8000000000000000000000000000000000009
:100FE8000000000000000000008301384482929253
:100FF800740183000000000000007C44FF017D7D37
:101008007D7D017D7D7D7D017D7D7D7D01FF0000F4
:1010180000000000010001000100010001000100C2
:1010280000000000000000000101000000000000B6
:1010380000000000000000000000000000000000A8
:101048000000000000000000000000000000000098
:101058000000000000000000000000000000000088
:101068000000000000000000000101000000000076
:101078000001010000000000000000000101010162
:10108800010101010101010101010101010100004A
:101098000000000000000000000000000000000048
:1010A8000000000000000000000000000000F80838
:1010B80008080808080800F8186080000000806028
:1010C80018F80000002020F8000000000000E010E0
:1010D8000808080810E00000002020F800000000C0
:1010E80000000000000000000808080808886818C8
:1010F80000000000000000000000000000000000E8
:1011080000000000000000000000000000000000D7
:1011180000000000000000000000000000000000C7
:1011280000000000000000000000000000007F0137
:10113800010101010100007F0000010618060100FD
:10114800007F00000040407F4040000000001F205A
:1011580040404040201F00000040407F40400000C9
:101168000000006000000000000060180601000098
:101178000000000000000000000000000000000067
:101188000000000000000000000000000000000057
:101198000000000000000000000000000000000047
:1011A8000000000000000000000000000000000037
:1011B8000000000040202020C00000E0202020E0A7
:1011C80000000040E00000000060202020E0000057
:1011D800000000E0202020E0000000000040202067
:1011E80020C0000040202020C000000000000000B7
:1011F80000000000000000000000000000000000E7
:1012080000000000000000000000000000000000D6
:1012180000000000000000000000000000000000C6
:1012280000000000000000000000000000000000B6
:10123800000000000C0A0A090C00000F0808080F3B
:10124800000000080F080000000C0809090E000043
:101258000C00000F0909090F00000C00000C0A0A15
:10126800090C00000C0A0A090C000000000000002C
:101278000000000000000000000000000000000066
:101288000000000000000000000000000000000056
:101298000000000000000000000000000000000046
:1012A8000000000000000000000000000000000036
:1012B8000000000000000000000000000000000026
:1012C8000000000000000000000000808080808096
:1012D8008080800000000000000000000000000086
:1012E80000000000000000000000000000000000F6
:1012F80000000000000000000000000000000000E6
:1013080000000000000000000000000000000000D5
:101318007F030C300C037F00003854545800007CC5
:1013280004047800003C40407C00000000000000FD
:1013380000000000000000000000000000000000A5
:101348000000000000000000000000FFAAAAAA2870
:101358000800FF000000000000000000000000007E
:101368000000000000000000000000000000000075
:1013780000000000000000007F030C300C037F0019
:0F13880000264949493200007F020408107F0007
:1039CB0012411CE4F58E7F01123BE71241E91242D2
:1039DB00A812401EC2B27FF47E0112418DC2967FA7
:1039EB00E87E0312418D122B3A123E8A7FC87E006D
:1039FB0012418D12422D7BFF7A0B7988121E6712B2
:103A0B003E8A7F2C7E0112418DD2AF1241BC122116
:063A1B006112265980F83B
:10411C00E4F593F594F591F592F595F596F5B1F5E1
:10412C00B2F5B3F5B4F5C9F5CAF5CBF5CCF5E1F5B7
:02413C00E2227D
:1041FC00EF1FAC0670011E4C60060000000080F042
:01420C00228F
:10418D00EF1FAC0670011E4C600D0000007D0B7C16
:07419D00BEDCFEDDFC80E941
:0141A40022F8
:1041E900D284D283D282D281D280D2A7D2A6D2A5BA
:0341F900D2A4222B
:0742C300C284C281C2A622E1
:0742CA00C283C280C2A522DD
:0742D100C282C2A7C2A422B1
:0742D800D284D281D2A6229C
:0742DF00D283D280D2A52298
:0742E600D282D2A7D2A4226C
:094296001242C31242CA0242D1D5
:09429F001242D81242DF0242E68D
:10413E00D2927F027E001241FCC2927F147E001248
:0B414E00418DD2927F147E000241FCE4
:103CEF00E490001BF090001AF090001AE0C39408C3
:103CFF007480948050223092FD7F1E7E001241FC12
:103D0F0090001BE025E0F0309203E004F02092FDDC
:0D3D1F0090001AE004F080D190001BE0FF3E
:013D2C002274
:102FAE0012413E3092030230433092FD7F2A7E0062
:102FBE001241FC123CEF900011EFF0123CEF90002A
:102FCE0012EFF0123CEF900013EFF0123CEF900076
:102FDE0014EFF0123CEF900019EFF07F287E0012F4
:102FEE0041FC900012E0FF900011E02FFFE433FE51
:102FFE00900013E0FD7A002FFFEA3EFEA3E0FC2FC7
:10300E00FFEA3EFE900019E0B5071AEAB5061690E3
:10301E000011E0900015F0900012E0900016F0A361
:10302E00EDF0A3ECF0900015E09000E0F0900017AA
:05303E00E09000E1F04C
:01304300226A
:0E423D0081838587898B8D80828486888A8C18
:0A2DBA004700AD00371202020619AF
:103B5B00C28600C28700D28600E4FEEEC3940874CE
:103B6B008094805011EF139285EFC313FFD287001F
:103B7B00C287000E80E5E4FEEEC394087480948047
:103B8B005011ED139285EDC313FDD28700C2870050
:063B9B000E80E5C2860069
:013BA1002201
:10396F00C28600C28700D28600E4FDEDC3940874BE
:10397F008094805011EF139285EFC313FFD287000D
:10398F00C287000D80E500E4FDEDC39408748094B8
:10399F0080501AA285E433FFC43333335480FCEED6
:1039AF00C3134CFED28700C287000D80DCC2860095
:0B39BF00D28700C28500D28500AF0651
:0139CA0022DA
:103F5A00E4FD7F8E123B5BE4FCECC394077480940F
:103F6A00805018EC90424493FF74AD2CF582E434EF
:103F7A0000F583E0FD123B5B0C80DE7D807F8E02C4
:023F8A003B5B9F
:1040D300E4FBEBC39407748094805018EB90423D4B
:1040E30093FF12396F74AD2BF582E43400F583EF3F
:0440F300F00B80DE70
:0140F70022A6
:032DC400011200F9
:0942A800D2B5D2B6D2B7D2A022E1
:1041590020B5037F002220B6037F012220B7037F09
:0B416900022220A0037F03227F05221A
:1021610012428C900001121CDC7812E614603914C2
:10217100700302220D14700302226B240360030218
:1021810022C21241597811EFF6640570030222C28E
:10219100900001E0FCA3E0FDA3E0FEA3E0FF780DC9
:1021A100121CD07812760122780D121C7390000156
:1021B100E0FCA3E0FDA3E0FEA3E0C39BFFEE9AFEDB
:1021C100ED99FDEC98FCE47B14FAF9F8D3121C1894
:1021D10040030222C2124159900000EFF07811E64B
:1021E100B50726E0FFE4FD123F8CC2AF12401ED2BC
:1021F100AF900001E0FCA3E0FDA3E0FEA3E0FF78C7
:102201000D121CD078127602220222AA1241599094
:102211000000EFF064057016A3E0FCA3E0FDA3E06D
:10222100FEA3E0FF780D121CD07812760322780D00
:10223100121C73900001E0FCA3E0FDA3E0FEA3E00B
:10224100C39BFFEE9AFEED99FDEC98FCE47BFAFA54
:10225100F9F8C3121C1850697811E6FF7D01123F8D
:102261008CC2AF12401ED2AF8044780D121C739005
:102271000001E0FCA3E0FDA3E0FEA3E0C39BFFEEB1
:102281009AFEED99FDEC98FCE47B14FAF9F8D3126F
:102291001C18502D124159900000EFF06405700E8A
:1022A1007811E6FF7D02123F8CE47812F62290004D
:1022B10001E0FCA3E0FDA3E0FEA3E0FF780D121C0A
:0122C100D04C
:0122C20022F9
:0B371500900008EBF0A3EAF0A3E9F03D
:10372000781BE6FF08E66F6052900008E0FBA3E01C
:10373000FAA3E04A4B601174132FF8E6FE900008DC
:10374000A3A3E0F9EE121AD790000BE0FBA3E0FA76
:10375000A3E04A4B601174172FF8E6FE90000BA30C
:10376000A3E0F9EE121AD70FEFC39404748094808B
:0D3770004002E4FF781BA6077F01227F00C6
:01377D002229
:103F8C00781CE6FC04FEC39404748094804002E424
:103F9C00FE781BE66E601774132CF8A607AF057439
:103FAC00172CF8A607AF06781CA6077F01227F0006
:013FBC0022E2
:0A4282006C656E3D2562640D0A00B4
:0942B100D2B3D2B4C2B4C2B322EC
:0742ED00D2B3C2B4D2B42227
:0B420D00123FF5124218AF04123FF5FB
:05421800D2B3C2B32285
:073FEE00AC071242B17F781D
:103FF500C2B3E4FEEEC3940874809480501AAD07F2
:10400500ED548064807004D2B48002C2B4EF25E020
:08401500FFD2B3C2B30E80DC40
:01401D002280
:0E424B00123FEE124218E4FF12420D0242ED45
:0E425900123FEE1242187F4012420D0242ED5B
:10404C00EF24B0FFEE33FEE4FDFC1240687F02E487
:0C405C00FDFCFE1240687F10E4FDFCFE3D
:10406800AB07AA06ED4C6003024259AF0312424B5C
:014078002225
:053C6D009000E2EFF001
:103C7200E4F9E9FF7E00C3940874809480502C120A
:103C8200404CE49000E3F09000E3E0C39480748041
:103C9200948050149000E2E0FF7E007D017C0012CF
:0B3CA2004068A3E004F080DF0980C749
:013CAD0022F4
:083DA500900023E0FFA3E0FD04
:103DAD00A907ED24B0FFE433FEE4FDFC124068E901
:103DBD00240254F0C4540F7E004410FFE4FDFC12A5
:103DCD004068E92402FF7E00EF540FFFE4FDFC0282
:023DDD0040683C
:1041A5007F8D124064E4FDFC7F14FE124068E4FD3F
:0741B500FC7FAFFE02406831
:0E4267007F8D12405BE4FDFC7FAEFE024068DE
:103E8A00E4F9E9FF7E00C3940874809480502712F5
:103E9A00404CE4900011F0900011E0C394807480CB
:103EAA009480500F7D017C00E4FFFE124068E0041C
:063EBA00F080E40980CC59
:013EC00022DF
:103E5200E4F9E9FF7E00C39408748094805028122C
:103E6200404CE49000E4F09000E4E0C3948074805D
:103E7200948050107D017C007F017E00124068E03A
:073E820004F080E30980CB8E
:013E89002216
:0B22C300900024EDF0900023EFF0FDF0
:1022CE00E4900027F0F9EB24E0F0EDD3947F7480D6
:1022DE009480400AE4900023F0A3E02402F09000E2
:1022EE0026E0641060030223B5123DA5E4F9E9C3AC
:1022FE00940874809480504A900027E075F010A4E2
:10230E002930011AF582E435F0F583E58224CEF505
:10231E0082E5833402F583E493FF7E00801AF58212
:10232E00E435F0F583E58224CEF582E5833402F5BB
:10233E0083E493F4FFE4F4FE7D017C00124068090F
:10234E0080AC900023E0FFA3E004FD123DADE4F964
:10235E00E9C3940874809480400302240D900027F2
:10236E00E075F010A42930011AF582E435F0F583FA
:10237E00E58224D6F582E5833402F583E493FF7E6D
:10238E0000801AF582E435F0F583E58224D6F582D5
:10239E00E5833402F583E493F4FFE4F4FE7D017CDF
:1023AE00001240680980A9123DA5E4F9E9C394061C
:1023BE00748094805049900027E075F006A424A6FE
:1023CE00300119F582E5F03400F583E58229F582B6
:1023DE00E43583F583E493FF7E008019F582E5F002
:1023EE003400F583E58229F582E43583F583E493A1
:0F23FE00F4FFE4F4FE7D017C001240680980AD1D
:01240D0022AC
:070003009000E5EFF0A905F4
:10000A007F017E00AD0119ED600C9000E5E0FD7CFA
:06001A0000121AE980EE5D
:0100200022BD
:0E2A57009000C8EFF0A3EDF0A3EAF0A3EBF0BF
:102A6500E49000CFF0A3F0EB4A60179000CFE004AC
:102A7500F07C007D0AAF03AE02121AFBAA06AB0773
:102A850080E5E49000CDF09000CFE0FF9000CDE030
:102A9500FEC39F4003022B39C3EF9E14FD7F0A122C
:102AA50000039000CAE0FCA3E0FDCFCDCFCECCCE95
:102AB500121AFB7C007D0A121AFB9000CEEDF090F5
:102AC50000D0E0703A9000CFE014FF9000CDE0FE1A
:102AD500C39F502BA3E070219000CCE0FCC3138E64
:102AE500F0A4FF9000C8E02FFFA3E0FD900026ECC6
:102AF500F0A20E92017B20802F9000D07401F090FF
:102B050000CCE0FEC313FFA3E0FDEF8DF0A4FF9022
:102B150000C8E02FFFA3E0FD9000CEE02430FB903D
:102B25000026EEF0A20E92011222C39000CDE00421
:042B3500F0022A8CF4
:012B39002279
:10377E0090001CEFF0A3EDF0A3EBF0A3EAF0A3E9A9
:01378E00F04A
:10378F00E4900022F090001EE0FBA3E0FAA3E0F922
:10379F00900022E0F582758300121AAAFB60379021
:1037AF00001CE0FFA3E0FD900021E0900026F0A2B6
:1037BF000092011222C390001CE02408F0E0D39481
:1037CF0078748094804007E4F0A3E02402F0900026
:0637DF0022E004F080AFBF
:0137E50022C1
:0D276B00900028EBF0900026EFF0A3EDF0B9
:10277800E490002AF0123DADE4900029F090002981
:10278800E0FFC3940E74809480506330012390005E
:1027980028E075F01CA424BEF582E5F03408F58322
:1027A800E5822FF582E43583F583E493FF7E00808C
:1027B80028900029E0FF900028E075F01CA424BEB2
:1027C800F582E5F03408F583E5822FF582E4358358
:1027D800F583E493F4FFE4F4FE7D017C0012406885
:1027E80090002AE004F0900029E004F0808F900027
:1027F80026E0FFA3E004FD123DAD900029E0FFC3F1
:10280800941C748094805063300123900028E075F4
:10281800F01CA424BEF582E5F03408F583E5822F88
:10282800F582E43583F583E493FF7E0080289000E9
:1028380029E0FF900028E075F01CA424BEF582E58D
:10284800F03408F583E5822FF582E43583F583E4D7
:1028580093F4FFE4F4FE7D017C0012406890002AA6
:0B286800E004F0900029E004F0808FF5
:012873002242
:08384C00900026EEF0A3EFF05E
:10385400E4FDEDC3941974809480504E75F003ED2B
:10386400A4244EF582E5F03400F583E0FF3395E0BF
:10387400EF7F00FE75F003EDA4244FF582E5F034EC
:1038840000F583E02FFFE43EFE900026E0B5061726
:10389400A3E0B5071275F003EDA42450F582E5F01A
:0C38A4003400F583E0FF220D80A87FFFB8
:0138B00022F5
:1028740090001CEFF0A3EDF0A3EBF0A3EAF0A3E9C2
:01288400F063
:10288500E4A3F0A3F0A3F0A374FFF0E4A3F0900099
:102895001EE0FBA3E0FAA3E0F9900023E0FF04F0BB
:1028A5008F82758300121AAA70E4900023E0FFC39B
:1028B50013900025F07BFF7A427982900029F0126F
:1028C5001E67E4900023F0900025E0FF900023E0D0
:1028D500C39F400302297190001EE0FBA3E0FAA309
:1028E500E0F9900023E0FD75F002A4F58285F08300
:1028F500121AAA900021F0A3E4F090001EA3A3757C
:10290500F002EDA42401F582E435F0F583121AAA4C
:10291500FF900022E02FF0900021E03400F0E0FE6F
:10292500A3E0FF12384C900024EFF0F490002360F0
:102935001AE075F00EA4FF90001CE02FFFA3E0FD48
:10294500900024E0FBA20092018015E075F00EA432
:10295500FF90001CE02FFFA3E0FDA2009201E4FB25
:0C29650012276B900023E004F00228CC45
:012971002243
:0A33980090001CEFF090001EEBF017
:1033A200E4900023F0A3F0900026EDF090001FE0DF
:1033B200FF900026E0FDD39F506490001CE0FF12B6
:1033C2003DADE0900025F090001EE0FF900025E06A
:1033D200C39F5042900020E0FBA3E0FAA3E0F9A3D0
:1033E200E475F001300010121B5085F082F5831253
:1033F2001AAAFF7E008010121B5085F082F58312FC
:103402001AAAF4FFE4F4FE7D017C001240689000E9
:0E34120025E004F080B1900026E004F0808EEA
:013420002289
:102B3A00E4FDFC7FAEFE124056E4FDFC7F40FE122F
:102B4A004068E4FDFC7FB0FE124068E4FDFC7F8132
:102B5A00FE124068E4FDFC7FFFFE124068E4FDFCC3
:102B6A007FA1FE124068E4FDFC7FA6FE124068E4E5
:102B7A00FDFC7FA8FE124068E4FDFC7F3FFE124088
:102B8A0068E4FDFC7FC8FE124068E4FDFC7FD3FECA
:102B9A00124068E4FDFCFFFE124068E4FDFC7FD5AC
:102BAA00FE124068E4FDFC7F80FE124068E4FDFCF2
:102BBA007FD8FE124068E4FDFC7F05FE124068E4FF
:102BCA00FDFC7FD9FE124068E4FDFC7FF1FE124055
:102BDA0068E4FDFC7FDAFE124068E4FDFC7F12FE29
:102BEA00124068E4FDFC7FDBFE124068E4FDFC7FD6
:102BFA0030FE124068E4FDFC7F8DFE124068E4FD61
:102C0A00FC7F14FE124068E4FDFC7FAFFE024068C0
:103BE700EFFD3395E0FCED64014C701CE5A2543FFA
:103BF700F5A2759850438E40E4F589758BE8758D6D
:103C0700FFD28ED2ACD2AF22ED64024C701453BAFD
:103C1700FE759A5075D7E875D6FF438E1475AF01B8
:033C2700D2AF22F7
:0300230002421D79
:10421D00309805859980C298309904C299C20A32A6
:1040F800EDFB3395E0FAEB64024A7009200BFDEF03
:10410800D20BF59B22EB64014A7008200AFDEFD21E
:044118000AF59922E9
:100026009000DDEBF0A3EAF0A3E9F0AE05EE339520
:10003600E0FCED64024C70299000DDE0FBA3E0FAE1
:10004600A3E0F9121A91604F9000DDA3E475F00168
:10005600121B50A9F0FA121A91FF7D021240F88085
:10006600D7AF06EF3395E0FEEF64014E702990009E
:10007600DDE0FBA3E0FAA3E0F9121A916019900003
:10008600DDA3E475F001121B50A9F0FA121A91FFD4
:080096007D011240F880D72221
:0742F400AE077D010240F856
:10422D0043D12075D3CD75D2D443D18043AF402235
:09428C00C2AF782D121C67D2AFFD
:014295002206
:0300A300023C2AF2
:103C2A00C0E0C0F0C083C082C0D075D000C000C060
:103C3A0004C005C006C007782D121C67EF2401FFD7
:103C4A00E43EFEE43DFDE43CFC782D121CD0D00796
:103C5A00D006D005D004D000D0D0D082D083D0F006
:033C6A00D0E03275
:0D42750075D4D875D5EF43D10843AF202292
:103284004E6F206469616C6F672070726F632E0DDE
:103294000A00300031003200574D5F54494D455209
:1032A40000756E6B6E6F776E2074797065004B4598
:1032B400595F504C55533A20004B45595F4D494E88
:1032C40055533A20004B45595F52455455524E3A96
:1032D40020004B45595F5345543A20004B45595FF4
:1032E4004E4F4E45206F7220756E6B6E6F776E3A3F
:1032F4002000696D706F737369626C6520746F2050
:0A33040072756E20686572653A006C
:05009E00782CA60722EA
:1026590090000674FFF0A3F012428C900000121C47
:10266900DC9000BBE0F8A3E0F9A3E0FAA3E0FB905B
:102679000000E0FCA3E0FDA3E0FEA3E0C39BFFEEA6
:102689009AFEED99FDEC98FCE47B0AFAF9F8D3126D
:102699001C18501D900000E0FCA3E0FDA3E0FEA380
:1026A900E0FF9000BB121CDC9000067403F0E4A369
:1026B900F0900006E0F470277B0190000B04F0A372
:1026C9007400F0A37405F07A007904123715EF60ED
:1026D9000E900004E0900007F0900005E0A3F09050
:1026E9000006E0FFF4607A782CE6B408005069909F
:1026F90026FFF828287302276A02271702271F02D4
:10270900272A02273502274002274B022756900025
:1027190007E0FD0241D3900006E0FFA3E0FD02338C
:102729000E900006E0FFA3E0FD02352F900006E0C1
:10273900FFA3E0FD0234AA900006E0FFA3E0FD023A
:102749001397900006E0FFA3E0FD022CED90000630
:10275900E0FFA3E0FD02253D7BFF7A327984121E5A
:012769006708
:01276A00224C
:0100210022BC
:103FBD00EF1460111460151460192403701C7BFF3D
:103FCD007A327996227BFF7A327998227BFF7A3288
:103FDD00799A227BFF7A32799C227BFF7A3279A5FE
:013FED0022B1
:103D2D00EF602424FE601214601624FE602024042B
:103D3D0070237BFF7A3279B2227BFF7A3279BD22F2
:103D4D007BFF7A3279C9227BFF7A3279D6227BFFCB
:0C3D5D007A3279E0227BFF7A3279F6227C
:0E362C00900011EBF0A3EAF0A3E9F0A3EDF09B
:10363A00900011E0FBA3E0FAA3E04A4B605BE49040
:10364A000015F0900011E0FBA3E0FAA3E0F9900066
:10365A0015E0FF75F008A4F58285F083121AAA60B6
:10366A0038C3EF940A74809480502E900015E07548
:10367A00F008A4FF900011A3A3E02FF9EA35F0FAAD
:10368A00A3E0FFA3E0B507047D0180027D001224B8
:09369A0022900015E004F080AA62
:0136A3002204
:10240E0075F008A4FFE0FBA3E0FAA3E02FF9EA358C
:04241E00F0FA7D0152
:10242200900018EBF0A3EAF0A3E9F0A3EDF090001E
:1024320018E0FBA3E0FAA3E04A4B700302253C90AC
:102442000018A3A3E0F9121A916401702890000108
:10245200121B66FF900003121B66FD900005121C02
:10246200E89000217408F090001BE06004C302258C
:1024720037D3022537900018E0FBA3E0FAA3E0F976
:10248200121A9164037043900001121B66FF9000C0
:1024920003121B66FDEF240EFBC00390001FEDF03C
:1024A200900018E0FBA3A3E0900005121CE8900046
:1024B20020EBF0A3EAF0A3E9F090001BE06003C375
:1024C2008001D39200D003023398900018E0FBA35E
:1024D200E0FAA3E0F9121A9164027023900001124B
:1024E2001B66FF900003121B66FD900005121CE89C
:1024F20090001BE06003C38001D392000228749015
:102502000018E0FBA3E0FAA3E0F9121A9164047048
:1025120029900001121B66FF900003121B66FD90BA
:102522000005121CE89000217408F090001BE06086
:0B25320003C38001D3920012377E2209
:0B2F1200900011EBF0A3EAF0A3E9F03F
:102F1D00A3E0FBA3E0FAA3E0F9121A91900017F0D9
:102F2D00900011E0FBA3E0FAA3E04A4B6072900021
:102F3D0017E075F008A4FF900011A3A3E02FF9EAA4
:102F4D0035F0FAE4FD122422E4FF900011E0FBA31A
:102F5D00E0FAA3E0F975F008EFA4F58285F083128D
:102F6D001AAA600DEFC3940A7480948050030F80E9
:102F7D00D9900017E07005EF14F08006900017E06F
:102F8D0014F0900017E090001112240E900017E03D
:102F9D00FF900014E0FBA3E0FAA3E0F9EF121AD7BB
:012FAD002201
:0B342100900011EBF0A3EAF0A3E9F02B
:10342C00A3E0FBA3E0FAA3E0F9121A91900017F0C5
:10343C00900011E0FBA3E0FAA3E04A4B605F900020
:10344C0017E075F008A4FF900011A3A3E02FF9EA90
:10345C0035F0FAE4FD122422900017E004F09000FD
:10346C0011E0FBA3E0FAA3E0F9900017E075F00877
:10347C00A4F58285F083121AAA7004900017F090BC
:10348C000017E090001112240E900017E0FF90003E
:0D349C0014E0FBA3E0FAA3E0F9EF121AD749
:0134A9002200
:0942BA00BDF8C8EBCFB5CDB3008F
:103EC1009000007401F0A37400F0A374BFF07E00B1
:103ED1007F047D00900000E0FBA3E0FAA3E0F9126B
:103EE1001D1812428C900000E0FBA3E0FAA3E0F958
:033EF100021C2987
:103CAE007A0079BF9000097401F0A37400F0A37438
:103CBE00BFF012428C900009E0FBA3E0FAA3E0F9FA
:103CCE00121C80C3EF9BFFEE9AFEED99FDEC98FC63
:103CDE00E47B987A3AF9F8D3121C185003123E1965
:013CEE0022B3
:1041D300900008EFF07003023E19900008E06403BA
:0641E3007003123CAE2245
:1041BC007BFF7A4279BAD2007D037F241228747F68
:0741CC000112009E023EC13A
:10417400B0B4BCFCD1DDCABE000300700007FF0B65
:094184007A0000000000000000B8
:032DC700011D00EB
:103B110090000A7401F0A37400F0A374BFF07E005A
:103B21007F097D0090000AE0FBA3E0FAA3E0F9120F
:103B31001D1812428C90000AE0FBA3E0FAA3E0F901
:103B4100900001121C43900005E475F005121BEB77
:0A3B5100900007E475F002021BEB80
:0529720090000AEFF0E7
:102977007A0079BFA37401F0A37400F0A374BFF0C9
:10298700AF05123D2DC003C002C00190000BE0FB54
:10299700A3E0FAA3E0F9900005121B66FF90000B75
:1029A700A3A3900007121B66FD9000217408F0D2C4
:1029B70000D001D002D00312377E90000BE0FBA3BA
:1029C700E0FAA3E0F9900005E475F058121B9E9019
:1029D700000AE0FF123FBDC003C002C00190000B18
:1029E700E0FBA3E0FAA3E0F9900005121B66FF9055
:1029F700000BA3A3900007121B66FD90002174082B
:102A0700F0D200D001D002D00312377E90000BE045
:102A1700FBA3E0FAA3E0F9900007E475F001121BAD
:102A27009E900005E475F005121BEB900007121B42
:102A370066C39407E5F09400401590000BE0FBA3F4
:0F2A4700E0FAA3E0F9900007E475F002121BEB30
:012A5600225D
:10352F00900009EDF0900008EFF06009640260056B
:10353F00EF6401700B900008E0FFA3E0FD12297209
:10354F00900008E0FF6403604AEF60046401704379
:10355F00900009E064017015900014F0A37400F05E
:10356F00A3741DF07BFF7A41797D022F1290000921
:10357F00E064027015900014F0A37400F0A3741DA2
:10358F00F07BFF7A41797D023421900009E07003CE
:0F359F00023E19900008E0FFA3E0FD1200212278
:103DDF007F0312009E7E007F0A7D007B007A0079B0
:103DEF0022121D18E4781DF6123E8A7BFF7A417964
:103DFF0074D200E4FD7F241228747BFF7A41797D11
:0A3E0F00781DE6FD12362C023B116F
:103AC400312E6D6F6465203100322E6D6F64652078
:103AD4003200332E6D6F64652033004C454400D1B1
:103AE400DDCABE00000300700007FF0B7A01000A64
:103AF4000003FF3AC401000A0004FF3ACD01000AA2
:0D3B04000005FF3AD60000000000000000A0
:102DCA00011E004200D100004200D300004200D59B
:022DDA000000F7
:103A21009000D1E475F001121B50FAD3E5F09FEA42
:103A31009E4007E49000D1F0A3F07C009000D1E01B
:103A4100FEA3E0FF121AFBEE7026EF146013146060
:103A510013146013146013146013240570120242CE
:103A6100C30242D80242CA0242DF0242D10242E606
:033A710012429F5F
:013A7400222F
:103044009000D3E475F001121B50FAD3E5F09FEA27
:103054009E4007E49000D3F0A3F07C009000D3E0FE
:10306400FEA3E0FF121AFBEE7067EFB4120050618A
:1030740090307BF82828730230B10230B40230B7A4
:103084000230BA0230BA0230BA0230BD0230C00295
:1030940030C30230C60230C60230C60230C9023024
:1030A400CC0230CF0230D20230D20230D2C28422DB
:1030B400C28122C2A6220242D8C28322C28022C274
:1030C400A5220242DFC28222C2A722C2A422024255
:0430D400E612429F1F
:0130D80022D5
:103912009000D5E475F001121B50FAD3E5F09FEA4E
:103922009E4007E49000D5F0A3F07C009000D5E023
:10393200FEA3E0FF121AFBEE700CEF14600A146093
:103942000E14601824038021C284C280C2A622D22F
:1039520084D280D2A6C283C2A7C2A522D283D2A712
:0C396200D2A5C282C281C2A42212429FE0
:01396E002236
:10407900EF14600D1460131460192403701E0242BA
:104089009F7D1E7FB47E00023A217D0A7FB47E00A7
:0D4099000230447D287FA07E0012391222E3
:0442FB0012429F22AA
:1034AA00900009EDF0900008EFF064037009781EAF
:1034BA00E6FF1240798062900008E06004640170BF
:1034CA005812429F900009E064017015900014F0B0
:1034DA00A37400F0A3741EF07BFF7A3A79E9022FF5
:1034EA0012900009E064027015900014F0A37400B1
:1034FA00F0A3741EF07BFF7A3A79E9023421900036
:10350A0009E064037002800B900009E0700B781EDA
:10351A00E67003023E190242FB900008E0FFA3E0B6
:05352A00FD120021224A
:103A75007F0412009E7E007F0A7D007B007A00791C
:103A850022121D18E4781EF6123E8A7BFF7A3A79D7
:103A9500DF9000217410F0D200E4FD7F2612377EFE
:103AA5007BFF7A3A79E3D200E4FD7F3E1228747BEE
:0F3AB500FF7A3A79E9781EE6FD12362C0242FBC1
:1035AE00312E4B45592064656D6F00322E4C4544CB
:1035BE002064656D6F00332E5254432064656D6F29
:1035CE0000342E42555A5A45522064656D6F0035AF
:1035DE002E44485431312064656D6F004D61696E23
:1035EE00204D656E75000300700007FF0B7A010019
:1035FE000A0002FF35AE01000A0003FF35B90100D3
:10360E000A0004FF35C401000A0005FF35CF010092
:0E361E000A0006FF35DD00000000000000007D
:032DDC00011F00D4
:10330E00900009EDF0900008EFF064036070EF603C
:10331E000464017069900009E06401701590001456
:10332E00F0A37400F0A3741FF07BFF7A3579F402DA
:10333E002F12900009E064027015900014F0A3742F
:10334E0000F0A3741FF07BFF7A3579F402342190DC
:10335E000009E0FF64036031EF7023781FE624FE5E
:10336E0060101460101460101460102404701A029F
:10337E003DDF023A75022E71023D690237E690007A
:0A338E0008E0FFA3E0FD1200212279
:103E1900123E8A7F0212009E7E007F0A7D007B008F
:103E29007A007922121D187BFF7A3579EA900021F0
:103E39007410F0D200E4FD7F2012377E7BFF7A35C3
:093E490079F4781FE6FD02362C25
:1000A6000000000000000000002F00000000070014
:1000B600070000147F147F1400242A7F2A1200628E
:1000C600640813230036495522500000050300003A
:1000D60000001C224100000041221C000014083EC2
:1000E60008140008083E0808000000A06000000888
:1000F60008080808000060600000002010080402DC
:10010600003E5149453E0000427F40000042615199
:100116004946002141454B31001814127F10002733
:1001260045454539003C4A494930000171090503F6
:1001360000364949493600064949291E0000363627
:10014600000000005636000000081422410000148A
:100156001414141400004122140800020151090667
:1001660000324959513E007C1211127C007F4949E8
:100176004936003E41414122007F4141221C007F19
:1001860049494941007F09090901003E4149497A27
:10019600007F0808087F0000417F410000204041A1
:1001A6003F01007F08142241007F40404040007F0D
:1001B600020C027F007F0408107F003E4141413E51
:1001C600007F09090906003E4151215E007F091999
:1001D60029460046494949310001017F0101003F96
:1001E6004040403F001F2040201F003F4038403F16
:1001F600006314081463000708700807006151497A
:10020600454300007F41410000552A552A5500000C
:1002160041417F000004020102040040404040408A
:10022600000001020400002054545478007F484422
:10023600443800384444442000384444487F003859
:100246005454541800087E0901020018A4A4A47C82
:10025600007F080404780000447D4000004080844C
:100266007D00007F102844000000417F4000007C94
:1002760004180478007C08040478003844444438A0
:1002860000FC242424180018242418FC007C0804EC
:10029600040800485454542000043F444020003CC5
:1002A6004040207C001C2040201C003C4030403C4C
:1002B600004428102844001CA0A0A07C00446454DC
:1002C6004C44141414141414000000000000000020
:1002D6000000000000000000000000F80000000020
:1002E600000000333000000000100C06100C060061
:1002F600000000000000000040C07840C0784000C8
:10030600043F04043F040400007088FC0830000029
:10031600001820FF211E0000F008F000E018000081
:1003260000211C031E211E0000F00888700000003A
:100336001E2123241927211010160E00000000008C
:100346000000000000000000000000E018040200A9
:10035600000000071820400000020418E00000001A
:100366000040201807000000404080F08040400018
:100376000202010F01020200000000F0000000006E
:100386000101011F01010100000000000000000042
:1003960080B07000000000000000000000000000B7
:1003A6000001010101010101000000000000000040
:1003B60000303000000000000000000080601804DB
:1003C600006018060100000000E010080810E000B8
:1003D600000F102020100F00001010F80000000081
:1003E6000020203F202000000070080808887000C8
:1003F6000030282422213000003008888848300048
:100406000018202020110E000000C02010F8000067
:1004160000070424243F240000F808888808080000
:100426000019212020110E0000E010888818000015
:10043600000F112020110E0000380808C8380800E7
:100446000000003F00000000007088080888700067
:10045600001C222121221C0000E010080810E000E8
:100466000000312222110F000000606060000000D1
:1004760000080C0C0C0000000000008000000000CA
:10048600000080600000000000008040201008008E
:100496000001020408102000404040404040400057
:1004A6000404040404040400000810204080000032
:1004B6000020100804020100007048080808F00037
:1004C6000000003036010000C030C828E810E00007
:1004D6000718272423140B000000C038E000000092
:1004E600203C23020227382008F8888888700000FC
:1004F600203F202020110E00C030080808083800D0
:10050600071820202010080008F808080810E00046
:10051600203F202020100F0008F88888E8081000E7
:10052600203F20202320180008F88888E8081000BB
:10053600203F200003000000C030080808380000F3
:1005460007182020221E020008F808000008F808F4
:10055600203F210101213F20000808F8080800007B
:100566000020203F2020000000000808F8080800AE
:10057600C08080807F00000008F888C02818080026
:10058600203F20012638200008F80800000000005F
:10059600203F20202020300008F8F800F8F8080056
:1005A600203F003F003F200008F830C00008F80850
:1005B600203F200007183F00E01008080810E00060
:1005C6000F10202020100F0008F808080808F00077
:1005D600203F210101010000E01008080810E0009A
:1005E6000F18242438504F0008F88888888870002F
:1005F600203F2000030C30200070880808083800CF
:100606000038202121221C00180808F808081800C4
:100616000000203F2000000008F808000008F80845
:10062600001F202020201F000878880000C83808F6
:10063600000007380E010000F80800F80008F8006E
:10064600033C0700073C0300081868808068180808
:1006560020302C03032C30200838C800C838080086
:100666000000203F2000000010080808C8380800D5
:100676002038262120201800000000FE0202020079
:100686000000007F40404000000C30C00000000029
:10069600000000010638C00000020202FE00000051
:1006A600004040407F0000000000040202020400F7
:1006B6000000000000000000000000000000000034
:1006C600808080808080808000020204000000001C
:1006D6000000000000000000000080808080000014
:1006E6000019242222223F2008F800808000000002
:1006F600003F112020110E000000008080800000C5
:10070600000E112020201100000000808088F800D3
:10071600000E112020103F20000080808080000005
:10072600001F222222221300008080F08888881869
:100736000020203F20200000000080808080800074
:10074600006B94949493600008F800808080000009
:10075600203F210000203F200080989800000000E4
:100766000020203F20200000000000809898000014
:1007760000C08080807F000008F800008080800034
:10078600203F24022D302000000808F80000000059
:100796000020203F20200000808080808080800014
:1007A600203F20003F20003F8080008080800000A6
:1007B600203F210000203F20000080808080000034
:1007C600001F202020201F00808000808000000065
:1007D60080FFA12020110E00000000808080800094
:1007E600000E112020A0FF80808080008080800085
:1007F60020203F21200001000000808080808000B2
:100806000033242424241900008080E08080000026
:100816000000001F20200000808000000080800073
:10082600001F202020103F208080800000808080D4
:1008360000010E3008060100808000800080808064
:100846000F300C030C300F00008080008080800089
:100856000020312E0E3120008080800000808080B4
:1008660080818E7018060100008080808080800064
:100876000021302C2221300000000000807C020282
:1008860000000000003F404000000000FF000000A4
:1008960000000000FF0000000002027C8000000053
:1008A6000040403F0000000000060101020204046F
:1008B6000000000000000000008080404060C0C0D2
:1008C6004040400000000004040705053F3F0505C1
:1008D6000504040400000000E04040404040C00021
:1008E6000000001010180F05050505053F00000063
:1008F600000000C0C040404040C0000000000000B2
:1009060000001F121212121F0000000000C04080DB
:10091600C000808080E0E0808080000F0A0A0F011E
:100926001224203F1F0101008080808040000020AB
:1009360040408080000000101010090D1732120E82
:100946000001010000004040C060008000E000801F
:100956000000000505033F2422111017080C0100B2
:10096600000000E0C0404040C0C0C00000000010D1
:10097600141B1B1B1F1F1B1B13303010000040E0F5
:10098600C040E040C04040C04000000424170E05AF
:100996002F141E05053F3000000000000000000077
:1009A600000000000000000203020202020202022E
:1009B60002060200000080808080808080808000A7
:1009C6000000001808080808080808081818180879
:1009D60000004040404040404040400000001018A9
:1009E600180A0A0A0A0A1A1A181810000000C04043
:1009F60040C040C0404040C0000000001F14161315
:100A060010131414141F0000000040404040C04062
:100A160040404040000000101012111E1312121F19
:100A260010101000000000000000E0C000000000F0
:100A3600000001012111090D01010D09111101012A
:100A4600000000C0C040404040C000000000000060
:100A560000001F121212121F0000000000083000D2
:100A66002020FC202020FC20200081413F4082A243
:100A76009F828282BF82820000000000049860800C
:100A86000000000000008040201806010001061842
:100A960020408000000888C8A89888844424040060
:100AA6000000004424168685FC040415264C00002C
:100AB6006050CC60002020E42820A020200046457D
:100AC60024248042330E027E8287E0002020FC2010
:100AD60000701010D418101070008484FF0200817A
:100AE600894F31112947810040A09C9000907040A9
:100AF60050FC50F0400004047FA450215F4095FF55
:100B0600959590008008100030505054D8505050A1
:100B1600300000611806009F55151F15559F0000EF
:100B260080808888888888888888888080002010C7
:100B360008068080FF00000204083000000830002C
:100B460000F84848484444C4000081413F40908F23
:100B5600A0918A848BB0800000F80808C8484848ED
:100B660048C80808F80000FF40404F484848484F2A
:100B76004040FF00002070A82020222222222214BA
:020B8600080065
:102DDF00604B004EC4EA00D4C201C8D502CAB10389
:102DEF00B7D604C3EB05D0C706C6DA07D2BB08B601
:102DFF00FE09C8000ACBC40BCEE50CC1F90DC8D52E
:102E0F000EBDF80FC8EB10CFB511CDB312B0B41380
:0F2E1F00BCFC14D1DD15CABE16B7B517BBD81849
:1038B1005345540052544364656D6F003230002DFE
:1038C100000300700007FF0B7A0100050007FF38B5
:1038D100B101002800030100A20100400003010022
:1038E1009F01005800030100A501000E0005010021
:1038F100A8010026000501009C01003E0005010011
:103901009901006800050100AB0000000000000003
:0139110000B5
:102E2E004300A22D2D0043009F2D2D004300A52D04
:102E3E002D004300A82D2D0043009C2D2D00430096
:102E4E00992D2D004200AB3000C10D013100C10C97
:102C1A009000B4E0FF75F00A121A6FC454F0FEEF88
:102C2A0075F00A121A6FAFF0EF2E9000B3F0900011
:102C3A00B5E0FF75F00A121A6FC454F0FEEF75F092
:102C4A000A121A6FAFF0EF2E9000B1F09000B6E0C2
:102C5A00FF75F00A121A6FC454F0FEEF75F00A12EB
:102C6A001A6FAFF0EF2E9000B0F09000B7E0FF754A
:102C7A00F00A121A6FC454F0FEEF75F00A121A6FB6
:102C8A00AFF0EF2E9000AFF09000B8E0FF75F00AB9
:102C9A00121A6FC454F0FEEF75F00A121A6FAFF0F1
:102CAA00EF2E9000AEF09000B9E0FF75F00A121A0C
:102CBA006FC454F0FEEF75F00A121A6FAFF0EF2EE0
:102CCA009000ADF09000BAE0FF75F00A121A6FC4D6
:102CDA0054F0FEEF75F00A121A6FAFF0EF2E900063
:032CEA00B2F02223
:1030D9009000B3E0FFC4540F75F00AA4FEEF540F3B
:1030E9002E9000B4F09000B1E0FFC4540F75F00ABF
:1030F900A4FEEF540F2E9000B5F09000B0E0FFC48D
:10310900540F75F00AA4FEEF540F2E9000B6F090FC
:1031190000AFE0FFC4540F75F00AA4FEEF540F2E60
:103129009000B7F09000AEE0FFC4540F75F00AA408
:10313900FEEF540F2E9000B8F09000ADE0FFC4549C
:103149000F75F00AA4FEEF540F2E9000B9F090000D
:10315900B2E0FFC4540F75F00AA4FEEF540F2E908D
:0431690000BAF02296
:1031F9009000B3E0FDC4540F24309000A2F0ED54C8
:103209000F2430A3F09000B1E0FDC4540F24309096
:10321900009FF0ED540F2430A3F09000B0E0FDC4FE
:10322900540F24309000A5F0ED540F2430A3F090F2
:1032390000B2E0540724309000ABF09000AFE0FDFD
:10324900C4540F24309000A8F0ED540F2430A3F09B
:103259009000AEE0FDC4540F243090009CF0ED5472
:103269000F2430A3F09000ADE0FDC4540F2430903A
:0B3279000099F0ED540F2430A3F02268
:103BA20090000A7401F0A37400F0A374BFF07E00C9
:103BB2007F097D0090000AE0FBA3E0FAA3E0F9127E
:103BC2001D1890000AE0FBA3E0FAA3E0F9E4121A40
:103BD200D712428C90000AE0FBA3E0FAA3E0F9902E
:053BE2000001021C437C
:08139700900008EFF0A3EDF057
:10139F007A0079BFA37401F0A37400F0A374BFF0B7
:1013AF0012428C90000D121CDC900008E064036068
:1013BF000302149190000AE0FBA3E0FAA3E0F912F4
:1013CF001A916003021A63C2AF1240D31231F97B34
:1013DF00FF7A3879C27831E6FD12362CD2AF900001
:1013EF000AE0FBA3E0FAA3E0F9900001121CA09021
:1013FF00000DE0FCA3E0FDA3E0FEA3E0C39BFFEE26
:10140F009AFEED99FDEC98FCE47BC8FAF9F8C3124B
:10141F001C184003021A6390000DE0FCA3E0FDA32B
:10142F00E0FEA3E0FF90000AE0FBA3E0FAA3E0F9DF
:10143F00900001121C439000267408300C22F0D249
:10144F00017B3A7D057F1E1222C39000267408F09F
:10145F00D2017B3A7D057F361222C3C20C021A637A
:10146F00F0D2017B207D057F1E1222C390002674CF
:10147F0008F0D2017B207D057F361222C3D20C02E9
:10148F001A63900008E0600764016003021A63901A
:10149F000009E064037015900014F0A37400F0A32A
:1014AF007431F07BFF7A3879C2023421900009E061
:1014BF0070667831E67003023E197831E664017088
:1014CF005790000AE0FBA3E0FAA3E0F9121A91701B
:1014DF003204121AD7C2AF1240D31230D9D2AF9002
:1014EF0000267408F0D2017B3A7D057F1E1222C3BD
:1014FF009000267408F0D2017B3A7D057F361222C8
:10150F00C38015122C1A123F5A90000AE0FBA3E079
:10151F00FAA3E0F9E4121AD790000AE0FBA3E0FA6D
:10152F00A3E0F9121A9164016003021A6390000993
:10153F00E0640160030217E17831E6FF24FEB4078F
:10154F000040030217CB90156375F003A4C58325E4
:10155F00F0C583730215780215D002162902168280
:10156F000216DB02173402178C74B22FF582E434A3
:10157F0000F583E004FFF03395E0FED3EF9463EEC4
:10158F0064809480400E7831E624B2F582E4340012
:10159F00F583E4F07831E624B2F582E43400F58384
:1015AF00E0FD75F00A121A6F24309000A2F0ED756D
:1015BF00F00A121A6FAFF0EF24309000A3F0021769
:1015CF00CB7831E6FF24B2F582E43400F583E004F2
:1015DF00F0FD3395E0FCD3ED940CEC6480948040E7
:1015EF000C74B22FF582E43400F583E4F07831E621
:1015FF0024B2F582E43400F583E0FD75F00A121A87
:10160F006F243090009FF0ED75F00A121A6FAFF053
:10161F00EF24309000A0F00217CB7831E6FF24B210
:10162F00F582E43400F583E004F0FD3395E0FCD35C
:10163F00ED941FEC64809480400C74B22FF582E41B
:10164F003400F583E4F07831E624B2F582E4340017
:10165F00F583E0FD75F00A121A6F24309000A5F0A3
:10166F00ED75F00A121A6FAFF0EF24309000A6F06C
:10167F000217CB7831E6FF24B2F582E43400F5830C
:10168F00E004F0FD3395E0FCD3ED9417EC64809407
:10169F0080400C74B22FF582E43400F583E4F078C7
:1016AF0031E624B2F582E43400F583E0FD75F00AEB
:1016BF00121A6F24309000A8F0ED75F00A121A6F0D
:1016CF00AFF0EF24309000A9F00217CB7831E6FF8E
:1016DF0024B2F582E43400F583E004F0FD3395E0A5
:1016EF00FCD3ED943BEC64809480400C74B22FF5E6
:1016FF0082E43400F583E4F07831E624B2F582E435
:10170F003400F583E0FD75F00A121A6F2430900053
:10171F009CF0ED75F00A121A6FAFF0EF24309000C5
:10172F009DF00217CB7831E6FF24B2F582E4340046
:10173F00F583E004F0FD3395E0FCD3ED943BEC64CE
:10174F00809480400C74B22FF582E43400F583E46A
:10175F00F07831E624B2F582E43400F583E0FD75CC
:10176F00F00A121A6F2430900099F0ED75F00A12FA
:10177F001A6FAFF0EF243090009AF0803F7831E687
:10178F00FF24B2F582E43400F583E004F0FD3395D5
:10179F00E0FCD3ED9407EC64809480400C74B22F7E
:1017AF00F582E43400F583E4F07831E624B2F58273
:1017BF00E43400F583E024309000ABF07831E67527
:1017CF00F008A424C2F9743835F0FA7BFF7D0112BA
:1017DF002422900009E064026003021A637831E664
:1017EF00FF24FEB407004003021A4D90180875F04D
:1017FF0003A4C58325F0C5837302181D0218700258
:10180F0018C402191802196C0219C0021A1374B203
:10181F002FF582E43400F583E014F03395E0C364D0
:10182F00809480500F7831E624B2F582E43400F5CD
:10183F00837463F07831E624B2F582E43400F583E3
:10184F00E0FD75F00A121A6F24309000A2F0ED75CA
:10185F00F00A121A6FAFF0EF24309000A3F0021AC3
:10186F004D7831E6FF24B2F582E43400F583E014BD
:10187F00F03395E0C364809480500D74B22FF582DD
:10188F00E43400F583740CF07831E624B2F582E489
:10189F003400F583E0FD75F00A121A6F24309000C2
:1018AF009FF0ED75F00A121A6FAFF0EF2430900031
:1018BF00A0F0021A4D7831E6FF24B2F582E434002D
:1018CF00F583E014F03395E0C364809480500D7479
:1018DF00B22FF582E43400F583741FF07831E624DB
:1018EF00B2F582E43400F583E0FD75F00A121A6F49
:1018FF0024309000A5F0ED75F00A121A6FAFF0EFDB
:10190F0024309000A6F0021A4D7831E6FF24B2F58C
:10191F0082E43400F583E014F03395E0C3648094DF
:10192F0080500D74B22FF582E43400F5837417F0F4
:10193F007831E624B2F582E43400F583E0FD75F0EA
:10194F000A121A6F24309000A8F0ED75F00A121ADF
:10195F006FAFF0EF24309000A9F0021A4D7831E606
:10196F00FF24B2F582E43400F583E014F03395E000
:10197F00C364809480500D74B22FF582E43400F567
:10198F0083743BF07831E624B2F582E43400F583BA
:10199F00E0FD75F00A121A6F243090009CF0ED757F
:1019AF00F00A121A6FAFF0EF243090009DF0021A78
:1019BF004D7831E6FF24B2F582E43400F583E0146C
:1019CF00F03395E0C364809480500D74B22FF5828C
:1019DF00E43400F583743BF07831E624B2F582E409
:1019EF003400F583E0FD75F00A121A6F2430900071
:1019FF0099F0ED75F00A121A6FAFF0EF24309000E6
:101A0F009AF0803A7831E6FF24B2F582E43400F59B
:101A1F0083E014F03395E0C364809480500D74B26A
:101A2F002FF582E43400F5837407F07831E624B2A1
:101A3F00F582E43400F583E024309000ABF0783188
:101A4F00E675F008A424C2F9743835F0FA7BFF7DEF
:0F1A5F0001122422900008E0FFA3E0FD120021F5
:011A6E002255
:102E71007F0512009E7E007F0A7D007B007A00792B
:102E810022121D18E47831F6123E8A7BFF7A3879D6
:102E9100B59000217410F0D200E4FD7F2612377E38
:102EA1007BFF7A3879BD9000217408F0D2007D0350
:102EB1007F1812377E7BFF7A3879C0900021740821
:102EC100F0D2007D037F3812377E7BFF7A3879C0DC
:102ED1009000217408F0D2007D037F5012377E905C
:102EE10000267408F0D2017B3A7D057F1E1222C3B1
:102EF1009000267408F0D2017B3A7D057F361222BC
:102F0100C37BFF7A3879C27831E6FD12362C023B59
:012F1100A21D
:1040A6004448542044656D6F0074656D703A202D48
:1040B6002D430068756D693A202D2D25000300708B
:0D40C6000007FF0B7A000000000000000062
:0F2E5E004300DA2D2D004300D72D2D0001320047
:103EF40090000A7401F0A37400F0A374BFF07E0074
:103F04007F087D0090000AE0FBA3E0FAA3E0F91229
:103F14001D1812428C90000AE0FBA3E0FAA3E0F91A
:033F2400021C2953
:08253D00900008EFF0A3EDF09F
:102545007A0079BFA37401F0A37400F0A374BFF0FF
:1025550012428C90000D121CDC900008E0600464AF
:10256500017003023E19900008E06403600302262F
:102575004D90000AE0FBA3E0FAA3E0F9121C80905D
:10258500000DE0FCA3E0FDA3E0FEA3E0C39BFFEE8E
:102595009AFEED99FDEC98FCE47BC8FAF9F8C312B4
:1025A5001C18400302264D90000DE0FCA3E0FDA39E
:1025B500E0FEA3E0FF90000AE0FBA3E0FAA3E0F948
:1025C500121C29C2AF122FAE9000E0E0FFC4540FD9
:1025D50075F00AA4FEEF540F2EFD75F00A84E5F0A0
:1025E50024309000D8F0ED75F00A8424309000D79F
:1025F500F09000E1E0FFC4540F75F00AA4FEEF541B
:102605000F2EFD75F00A84E5F024309000DBF0AF65
:1026150005EF75F00A8424309000DAF07B017A002A
:1026250079DA9000217410F0D2007D037F4C1237C7
:102635007E7B017A0079D79000217410F0D2007D5D
:10264500057F4C12377ED2AF900008E0FFA3E0FD76
:032655001200214F
:01265800225F
:1037E6007F0712009E7E007F0A7D007B007A0079AB
:1037F60022121D18123E8A7BFF7A4079A69000217C
:103806007410F0D200E4FD7F2012377E7BFF7A40F1
:1038160079AF9000217410F0D2007D037F1C12371F
:103826007E7BFF7A4079B99000217410F0D2007D3A
:10383600057F1C12377E7BFF7A4079C37832E6FD1E
:0638460012362C023EF4D4
:1036A400312E736F6E67203100322E736F6E672078
:1036B4003200332E736F6E67203300342E736F6EB7
:1036C40067203400352E736F6E6720350042757A9B
:1036D4007A65722044656D6F000300700007FF0B6C
:1036E4007A0100190002FF36A40100190003FF3615
:1036F400AD0100190004FF36B60100190005FF36BC
:10370400BF0100190006FF36C800000000000000D9
:0137140000B4
:032E6D000133002E
:103F270090000A7401F0A37400F0A374BFF07E0040
:103F37007F087D0090000AE0FBA3E0FAA3E0F912F6
:103F47001D1812428C90000AE0FBA3E0FAA3E0F9E7
:033F5700021C2920
:082CED00900008EFF0A3EDF0E8
:102CF5007A0079BFA37401F0A37400F0A374BFF048
:102D050012428C90000D121CDC900008E07043A369
:102D1500E064017015900014F0A37400F0A37433FF
:102D2500F07BFF7A3679DD022F12900009E064020C
:102D35007015900014F0A37400F0A37433F07BFFBA
:102D45007A3679DD023421900009E06403700302CC
:102D55003E19900008E06403704F90000AE0FBA361
:102D6500E0FAA3E0F9121C8090000DE0FCA3E0FD61
:102D7500A3E0FEA3E0C39BFFEE9AFEED99FDEC9860
:102D8500FCE47BC8FAF9F8C3121C18501C90000D1E
:102D9500E0FCA3E0FDA3E0FEA3E0FF90000AE0FB5A
:102DA500A3E0FAA3E0F9121C29900008E0FFA3E0D4
:042DB500FD120021EA
:012DB90022F7
:103D69007F0612009E7E007F0A7D007B007A007923
:103D790022121D18123E8A7BFF7A3679D1900021D2
:103D89007410F0D200E4FD7F1412377E7BFF7A367F
:0C3D990079DD7833E6FD12362C023F275E
:10401E00E4900005F0A3F0B2A37FC87E001241FC2D
:10402E00900006E004F07006900005E004F0C390E6
:0D403E000006E094C8900005E0940040DA10
:01404B002252
:0300000002316D5D
:0C316D00787FE4F6D8FD7581330231B4A0
:101A6F00C2D530F707B2D563F0FF05F030E70CB2FF
:101A7F00D5F4048463F0FF05F080018430D502F4BF
:021A8F0004222F
:101A9100BB010689828A83E0225002E722BBFE0253
:091AA100E32289828A83E4932286
:101AAA00BB010CE58229F582E5833AF583E02250F1
:101ABA0006E92582F8E622BBFE06E92582F8E2223B
:0D1ACA00E58229F582E5833AF583E4932255
:101AD700BB010689828A83F0225002F722BBFE01EE
:021AE700F322E8
:101AE900EF8DF0A4A8F0CF8CF0A428CE8DF0A42E11
:021AF900FE22CB
:101AFB00BC000BBE0029EF8DF084FFADF022E4CCCF
:101B0B00F875F008EF2FFFEE33FEEC33FCEE9DEC97
:101B1B00984005FCEE9DFE0FD5F0E9E4CEFD22EDDD
:101B2B00F8F5F0EE8420D21CFEADF075F008EF2F27
:101B3B00FFED33FD4007985006D5F0F222C398FD18
:051B4B000FD5F0EA22B5
:101B5000A3F8E0C5F025F0F0E58215827002158348
:061B6000E0C838F0E822A5
:101B6600BB0110E58229F582E5833AF583E0F5F0BD
:101B7600A3E0225009E92582F886F008E622BBFE9A
:101B86000AE92582F8E2F5F008E222E5832AF583E0
:081B9600E993F5F0A3E99322A5
:101B9E00BB010DC58229C582C5833AC583021D448A
:101BAE005011C58229F808E5F026F618F5F0E58201
:101BBE0036F622BBFE11C58229F808E225F0F5F0B3
:101BCE00F218E23582F222F8E58229F582E5832ABF
:0D1BDE00F58374019325F0F5F0E4933822AF
:101BEB00F8BB0111E58229F582E5833AF583E8F02C
:101BFB00E5F0A3F0225009E92582C8F608A6F022E9
:0D1C0B00BBFE09E92582C8F2E5F008F222CF
:101C1800EB9FF5F0EA9E42F0E99D42F0E89C45F022
:011C28002299
:101C2900BB010789828A83021CDC5005E9F8021C82
:0A1C3900D0BBFE05E9F8021D83226E
:101C4300BB010DE58229F582E5833AF583021CDCAD
:101C53005007E92582F8021CD0BBFE07E92582F86C
:041C6300021D8322B9
:0C1C6700E6FC08E6FD08E6FE08E6FF22A9
:0D1C7300E6FB08E6F908E6FA08E6CBF822E1
:101C8000BB010789828A83021D5A5005E9F8021CAC
:101C900073BBFE05E9F8021D6689828A83021D7303
:101CA000BB010DE58229F582E5833AF583021D5AD1
:101CB0005007E92582F8021C73BBFE07E92582F86C
:101CC000021D66E58229F582E5833AF583021D73DC
:0C1CD000ECF608EDF608EEF608EFF62240
:0C1CDC00ECF0A3EDF0A3EEF0A3EFF0227B
:101CE800BB010DE58229F582E5833AF583021D984B
:101CF8005007E92582F8021D8FBBFE07E92582F807
:101D0800021DC1E58229F582E5833AF583021DCAE1
:101DFC00E5082429F582E43400F583E005082290F7
:101E0C000026300803900029E475F001121DA10290
:101E1C001A912001E97F2ED2018018EF540F2490E3
:101E2C00D43440D4FF30050BEF24BFB41A00500358
:101E3C002461FFE50960021509050CE50C7002052B
:101E4C000B30080E900026E475F001121DA1EF0274
:101E5C001AD70242F47403D2088003E4C208F508CE
:101E6C00900026121DB8E4F509F50BF50CE5096098
:101E7C00077F20121E3F80F5750AFFC202C201C205
:101E8C0003C204C206C207C209121E0BFF700D303A
:101E9C0008057F00121E50AF0CAE0B22B4255FC29A
:101EAC00D5C205121E0BFF24D0B40A00501A75F0CF
:101EBC000A780930D50508B6FF0106C6A426F62017
:101ECC00D5047002D20480D924CFB41A00EF500488
:101EDC00C2E5D205022051D20280C6D20180C0D206
:101EEC000380BCD2D580BAD20680B47F20121E3FAC
:101EFC002003077401B5090040F1121DFCFF121EEE
:101F0C003F021E79D209D2078095121DFCFB121DCF
:101F1C00FCFA121DFCF94A4B700679227A217BFFE0
:101F2C0020032EE509602A7E008E82758300121A2A
:101F3C00AA60060EEE650A70F0C2D5EBC0E0EAC0EE
:101F4C00E0E9C0E0EE122098D0E0F9D0E0FAD0E061
:101F5C00FB121A91FF60AAEBC0E0EAC0E0E9C0E016
:101F6C00121E3FD0E02401F9D0E03400FAD0E0FB9F
:101F7C00E50A0460DCD50AD980877BFF7A20799446
:101F8C00D203809C791080027908C207C2098008AC
:101F9C00D2D5790A8004790AC2D5E50A047002F513
:101FAC000AE4FAFDFEFF121DFCFC7B082002131252
:101FBC001DFCFD7B1030010A121DFCFE121DFCFFE6
:101FCC007B20EC3382D592D55013C3E43001069FAD
:101FDC00FFE49EFEE42002039DFDE49CFCE4CBF8B0
:101FEC00C202EC700CCFCECDCCE824F8F870F380A4
:101FFC0017C3EF33FFEE33FEED33FDEC33FCEB3365
:10200C00FB994002FB0FD8E9EB300205F8D0E0C495
:10201C0048B202C0E00AEC4D4E4F78207B0070C2F3
:10202C00EAB50A0040BCC0E012209AD0F0D0E02003
:10203C000204C4C0E0C4B202C0F0121E28D0F0D515
:10204C00F0EB021E79121DD61F16531F90581EE777
:10205C004C1EE3421F944F1F9C441F9C491EFC4383
:08206C001FA2551F86461F86C6
:10207400451F86472142501EEB2D1EEF2E1F122BAB
:102084001EF3231F1020212B2A1EAB4800001F0A19
:102094003F3F3F00790AA2D5200414300609B91045
:1020A400020404B9080104A2D52007025001042047
:1020B40003689203B509005034C0E07F203004194E
:1020C4007F30A20372077206500F1220F1C203C2BE
:1020D40007C206C2097F30800F300603E9C0E01250
:1020E4001E3F300603D0E0F9D0E0B509CC30061726
:1020F4007F30B9100C121E3F7F583005077F78805F
:1021040003B90803121E3F3003057F2D021E3F7FD3
:10211400202009F87F2B2007F322920380CF286E1A
:10212400756C6C2900D202121DFC3002F8C20278D0
:102134000930D50108F6021EAB2D50434958121D33
:10214400FC2403B405004001E490213D93121E30A9
:0D215400743A121E30D204750904021F9067
:101D1800EF4E6012EF60010EEDBB010B89828A83E2
:101D2800F0A3DFFCDEFA2289F05007F709DFFCA9EF
:0C1D3800F022BBFEFCF309DFFCA9F02246
:103179000239CBE493A3F8E493A34003F68001F268
:1031890008DFF48029E493A3F85407240CC8C33357
:10319900C4540F4420C8834004F456800146F6DF26
:1031A900E4800B0102040810204080902DBAE47ECF
:1031B900019360BCA3FF543F30E509541FFEE4931B
:1031C900A360010ECF54C025E060A840B8E493A3E2
:1031D900FAE493A3F8E493A3C8C582C8CAC583CA0D
:1031E900F0A3C8C582C8CAC583CADFE9DEE780BEC5
:012E70000061
:101D4400C5F0F8A3E028F0C5F0F8E582158270022A
:061D54001583E038F022C7
:0C1D5A00E0F8A3E0F9A3E0FAA3E0FB220C
:0D1D6600E2FB08E2F908E2FA08E2CBF822FD
:101D7300E493F8740193F9740293FA740393FB22C6
:0C1D8300ECF208EDF208EEF208EFF2229C
:091D8F00E6FB08E6FA08E6F92279
:091D9800E0FBA3E0FAA3E0F9224C
:101DA100F8E0FBA3A3E0F925F0F0E58215827002CB
:071DB1001583E0FA38F0226F
:091DB800EBF0A3EAF0A3E9F0222C
:091DC100E2FB08E2FA08E2F92253
:0C1DCA00E493FB740193FA740293F92275
:101DD600D083D082F8E4937012740193700DA3A39C
:101DE60093F8740193F5828883E4737402936860B0
:061DF600EFA3A3A380DFB0
:00000001FF
